:020000040800F2
:10000000C8A20020290300087F330008052F00083C
:100010007D330008830500087957000800000000C0
:10002000000000000000000000000000690200085D
:100030001507000800000000C50200088D35000803
:100040004303000843030008430300084303000878
:100050004303000843030008430300084303000868
:100060004303000843030008170700084303000880
:100070005D0600084303000843030008430300082B
:100080004303000843030008430300084303000838
:100090008505000843030008430300081D07000806
:1000A000430300085D3600084303000843030008CB
:1000B0004303000843030008430300084303000808
:1000C00043030008430300084303000843030008F8
:1000D000430300084303000843030008393B0008BA
:1000E00043030008430300084303000843030008D8
:1000F00043030008430300084303000843030008C8
:1001000043030008430300084303000843030008B7
:1001100043030008430300084303000843030008A7
:1001200069060008750600084303000881060008F8
:100130004303000843030008430300084303000887
:10014000C905000843030008430300088133000881
:10015000430300088D06000843030008513B0008D4
:100160004303000843030008430300084303000857
:100170004303000843030008430300080000000095
:10018000430300084303000800F002F800F05CF8A5
:100190000AA090E8000C82448344AAF10107DA45E2
:1001A00001D100F051F8AFF2090EBAE80F0013F0D8
:1001B000010F18BFFB1A43F0010318477C650000CC
:1001C0009C6500000A444FF0000C10F8013B13F04E
:1001D000070408BF10F8014B1D1108BF10F8015BA0
:1001E000641E05D010F8016B641E01F8016BF9D193
:1001F00013F0080F1EBF10F8014BAD1C0C1B09D1EA
:100200006D1E58BF01F801CBFAD505E014F8016B5B
:1002100001F8016B6D1EF9D59142D6D370470000ED
:100220000023002400250026103A28BF78C1FBD8FF
:10023000520728BF30C148BF0B6070471FB506F09A
:1002400013FA1FBD10B510BD00F061F91146FFF79C
:10025000F5FF05F067FB00F07FF903B4FFF7F2FF4D
:1002600003BC00F087F900002C4B19680868B0E85F
:10027000F04F80F30988BFF36F8F4FF0000080F3D9
:10028000118870470000000008480068006880F38B
:1002900008884FF0000080F3148862B661B6BFF39F
:1002A0004F8FBFF36F8F00DF00BF00BF08ED00E08E
:1002B000DFF80C00016841F470010160704700BF75
:1002C00088ED00E0EFF30980BFF36F8F134B1A68DE
:1002D0001EF0100F08BF20ED108A20E9F04F1060CB
:1002E00009B44FF0500080F31188BFF34F8FBFF374
:1002F0006F8F05F0EBFF4FF0000080F3118809BC11
:1003000019680868B0E8F04F1EF0100F08BFB0EC95
:10031000108A80F30988BFF36F8F70479C0000201C
:10032000EFF30580704700000948804709480047FF
:10033000FEE7FEE7FEE7FEE7FEE7FEE7FEE7FEE795
:10034000FEE7FEE704480549054A064B70470000F2
:100350004D36000889010008C8620020C8A20020AC
:10036000C8820020C882002053EA020C00F0698095
:100370002DE9F04B4FF00006002B1FBFB3FA83F5B9
:1003800003FA05F424FA05F65E4012BF1643B2FAEA
:1003900082F502FA05F4C5F120051EBF22FA05FC1C
:1003A00044EA0C04203556EA044C4FEA144418BFC2
:1003B000641C4FF000084FF00009904271EB030CF1
:1003C00039D3002919BFB1FA81F701FA07F6B0FA5B
:1003D00080F700FA07F6C7F120071EBF20FA07FCD6
:1003E00046EA0C062037B6FBF4FCA7EB0507103FE6
:1003F00007F01F0BCBF120060CFA0BFB2CFA06F6CC
:1004000044BFB3460026202FA4BF5E464FF0000B2A
:100410005BEA060C08BF4FF0010B19EB0B09ABFBB5
:10042000027C48EB0608C01B06FB02CC0BFB03CC8E
:1004300071EB0C01C1E70B46024641464846BDE858
:10044000F08B13B54FF000004FF00001AFF30080C8
:10045000BDE81C40704710B5203AC0F00B80B1E8F1
:100460001850203AA0E81850B1E81850A0E81850E9
:10047000BFF4F5AF5FEA027C24BFB1E81850A0E8F2
:10048000185044BF18C918C0BDE810405FEA827C0C
:1004900024BF51F8043B40F8043B08BF7047D20723
:1004A00028BF31F8023B48BF11F8012B28BF20F8C4
:1004B000023B48BF00F8012B70474FF0000200B527
:1004C000134694469646203922BFA0E80C50A0E877
:1004D0000C50B1F12001BFF4F7AF090728BFA0E825
:1004E0000C5048BF0CC05DF804EB890028BF40F8F1
:1004F000042B08BF704748BF20F8022B11F0804F33
:1005000018BF00F8012B7047704770477047754659
:1005100000F02CF8AE4605006946534620F007006F
:10052000854618B020B5FFF70DFFBDE820404FF01D
:1005300000064FF000074FF000084FF0000B21F0CD
:100540000701AC46ACE8C009ACE8C009ACE8C0099A
:10055000ACE8C0098D46704710B50446AFF3008083
:100560002046BDE81040FFF778BE00000048704705
:100570006462002001491820ABBEFEE7260002009D
:100580007047FEE7014800F0DCB90000E8030020F6
:1005900000B58BB000200121CDE906010891009043
:1005A000019002900390059004906946054800F080
:1005B000CDF8044800F0EAFB0221024800F0B3F84D
:1005C0000BB000BDE8030020014800F0BAB90000FC
:1005D0001004002000B58BB00020012100900E22F5
:1005E000CDE904020390CDE90601CDE9081201909E
:1005F00002906946054800F0A9F8044800F0C6FBDF
:100600000221024800F08FF80BB000BD100400205A
:10061000002070470020704710B5002204490548AB
:1006200003F07CFC0449034803F06BFC002010BD80
:10063000481600206C090020480E002010B5014625
:10064000034803F05EFC024803F034FC002010BDB8
:100650006C0900200020704770470000014800F03E
:1006600023BC000020060020014800F01DBC000053
:1006700090040020014800F017BC00008006002014
:10068000014800F011BC0000F0040020014800F017
:100690000BBC0000E006002001681823CAB2103A23
:1006A000B2FBF3F2054B6FF30901032A9B5CC365B0
:1006B00000D9091D8165084670470000E4660008FE
:1006C00010B5014600208B698A6A4FF0C07453B19F
:1006D000B3F5005F15D072B1012A0CD0022A0AD0FE
:1006E000032A09D104E01AB1012A06D0022A03D153
:1006F000C96AC90100D5012010BDC96AA142FAD05A
:1007000010BD002AF7D0012AF2D0022AF3D0032A22
:10071000F3D010BD7047102000F014BD202000F071
:1007200011BD72B6FEE790F82020012A07D0022AF8
:1007300005D0416A41F48021416201207047006880
:1007400042690A43426100207047000010B590F8EA
:100750002020012A07D0022A05D0416A41F48021D5
:100760004162012010BD3B48D0F8002242F0010256
:10077000C0F80022D0F8002222F47C52C0F80022F7
:10078000D0F800224B6A42EA0322C0F800220A7D18
:1007900002F01F0301229A40D0F81C329343C0F8A4
:1007A0001C32CB69B3B9D0F80C329343C0F80C3289
:1007B0008C894B6864F31F434C6900EBC404C4F894
:1007C00040320C890B6864F31F434C6900EBC4048E
:1007D000C4F84432CB69012B16D1D0F80C32134344
:1007E000C0F80C320C884B6864F31F434C6900EB73
:1007F000C404C4F840320C89CB6864F31F434C69CD
:1008000000EBC404C4F844328B69002BD0F80432E6
:100810000ED01343C0F804320B69002BD0F8143209
:1008200008D01343C0F81432096A012904D008E043
:100830009343EFE79343F5E7D0F81C121143C0F858
:100840001C12D0F8001221F00101C0F800120020A3
:1008500010BD000000640040704730B590F82040A3
:10086000012C05D0022C03D0416A41F480215DE0C7
:100870000468002955D02469A40754D04FF4D874D3
:10088000056804EB01142D5915F004059560056801
:100890002D594ED0ED08556005682C5904F002041E
:1008A000D4604FF4DA74056804EB01142D5905F097
:1008B0000F05156105682D59C5F307259561056874
:1008C0002C59240C54614FF4DC72046802EB0112C1
:1008D000A4581C700468A458240A5C700468A458C6
:1008E000240C9C700468A258120EDA704FF4DE7269
:1008F000046802EB0112A4581C710468A458240A6D
:100900005C710468A458240C9C710468A258120EEF
:10091000DA71006881B1016941F0200101610020B4
:1009200030BDE468A8E7416A41F40011416201204A
:1009300030BD6D0D1560AFE7C16841F02001C160A9
:10094000EDE72DE9F05F0546006800244669D0F820
:1009500004908768D0F80CB0D0F810A0D0F81880B8
:10096000F10748D0F90714D001218160B80703D5F9
:10097000284600F038FA0CE0780702D54FF40064FE
:1009800007E0380702D54FF4805402E0284600F013
:1009900029FAF80516D529684FF480708860B805E3
:1009A00003D5284600F021FA0CE0780502D544F47E
:1009B000005407E0380502D544F4804402E028469C
:1009C00000F012FAF80316D529684FF480308860D9
:1009D000B80303D5284600F00AFA0CE0780302D5E4
:1009E00044F4004407E0380302D544F4803402E0C4
:1009F000284600F0FBF9300707D55FEACB6004D545
:100A00002968102044F40074C86070074FF008078C
:100A100007D55FEA0B7004D52868C760284600F048
:100A200099F9B00706D52868C068800702D0284623
:100A300000F092F9700607D55FEACA6004D529680C
:100A4000102044F480640861B00607D55FEA0A709C
:100A500004D528680761284600F094F9F00606D509
:100A600028680069800702D0284600F08CF9B0039E
:100A700008D55FEAC96005D5296810204860284676
:100A800000F082F9F00307D55FEA097004D5286801
:100A90004760284600F0ACF9300446D55FEA49705B
:100AA00040D5F00504D55FEAC87001D044F00104D8
:100AB000B00504D55FEA887001D544F002047005E2
:100AC00004D55FEA487001D544F00404300529D507
:100AD00018F0700F26D008F07000402815D006DC02
:100AE000102809D020280AD0302816D10AE0502832
:100AF0000ED0602811D10EE044F008040DE044F05F
:100B000010040AE044F0200407E044F0400404E04C
:100B100044F0800401E044F480742868816921F085
:100B200070018161296804204860002C05D0686A42
:100B3000204368622846FFF78FFEBDE8F09F70B53E
:100B4000040003D094F8200010B104E0012070BD2F
:100B5000204600F081F82068016841F00101016041
:100B600000F0FAFB0546052604E000F0F5FB401B0B
:100B70000A2811D820684068C007F6D020680168AC
:100B800021F00201016000F0E7FB05460BE000F0F8
:100B9000E3FB401B0A2806D9606A40F4003060621B
:100BA00084F82060D2E7206840688007EFD4207E78
:100BB0000128206801683DD021F080010160607E3D
:100BC00001282068016838D021F040010160A07E32
:100BD00001282068016833D021F020010160E07E07
:100BE0000128206801682ED041F010010160207FAB
:100BF00001282068016829D021F008010160607F88
:100C000001282068016824D021F004010160D4E9A2
:100C100002010843D4E90412114308436168491EE4
:100C200008432168C86100206062012084F8200028
:100C3000002070BD41F08001C0E741F04001C5E7F0
:100C400041F02001CAE721F01001CFE741F008018F
:100C5000D4E741F00401D9E7F0B587B00446142188
:100C60006846FFF72AFC364B3648DFF8D0E01968B3
:100C7000D4F800C0334A0325022609271030002487
:100C8000491CF44522D11960012907D1016841F0BE
:100C900000710160006800F000700590106840F07D
:100CA000080010601068CDE9005600F00800CDE99A
:100CB000047069462448CDE9024500F04FFA00224D
:100CC0000521142000F0E0FB142032E0DFF87CE086
:100CD000F44530D1D0F800C04CF0806CC0F800C0B2
:100CE000D0F800C001290CF0806CCDF814C0196058
:100CF00007D1016841F000710160006800F00070E8
:100D00000590106840F002001060106802AB00F01F
:100D1000020005906020CDE9000683E8B000694636
:100D20000B4800F01BFA00220521402000F0ACFB2C
:100D3000402000F09BFB07B0F0BD000000640040C5
:100D40000800002030380240000C024000680040DB
:100D5000000402407047000010B504460748844272
:100D600002D1204604F030FD0548844204D12046DB
:100D7000BDE8104004F09ABD10BD0000E80300205B
:100D800010040020704770477047000070B504469B
:100D900090F82000012804D0606A40F400206062CE
:100DA00018E0022084F820002068016821F0010189
:100DB000016000F0D1FA05460EE000BF00F0CCFA69
:100DC000401B0A2808D9606A40F4003060620520A0
:100DD00084F82000012070BD20684068C007EDD174
:100DE000606270BD704770477047704770477047CA
:100DF00070472DE9F0410446876D00F0ADFA0646D4
:100E000094F835000025022806D08020606584F81B
:100E100034500120BDE8F0812068016821F01601FE
:100E200001602068416921F080014161206C08B9AE
:100E3000A06C20B12068016821F0080101602068E1
:100E4000016821F0010101600CE000F085FA801BCF
:100E5000052807D920206065032084F8350084F830
:100E60003450D7E720680068C007EED194F85C10D2
:100E70003F208840B860012084F8350084F8345061
:100E80000020C7E790F83510022903D08021416582
:100E900001207047052180F835100068016821F0B5
:100EA00001010160002070472DE9F84304464FF02E
:100EB0000009CDF8009063484FF41651A56D006805
:100EC000B0FBF1F72E6894F85C10082000FA01F1ED
:100ED00031420FD021680A6852070BD50A6822F008
:100EE00004020A6094F85C108840A860606D40F0CD
:100EF0000100606594F85C104FF0010808FA01F0F9
:100F0000304208D021684969090604D5A860606D9F
:100F100040F00200606594F85C1004208840304284
:100F200008D021680968890704D5A860606D40F081
:100F30000400606594F85C1010208840304218D09E
:100F400021680968090714D5A86020680168490369
:100F500004D50068000308D5A16C07E00168C90545
:100F600003D4016821F008010160216C09B1204619
:100F7000884794F85C1020208840304231D02168A6
:100F80000968C9062DD5A86094F8350005282068A1
:100F9000016806D0490347D5006800031DD4616C81
:100FA0001CE021F0160101602068416921F08001F8
:100FB0004161206C08B9A06C20B12068016821F063
:100FC0000801016094F85C103F208840A86084F814
:100FD000358084F83490216D1FE0E16B09B1204623
:100FE0008847606D00282BD0606DC00714D00520A5
:100FF00084F835002068016821F001010160009843
:10100000401C0090B84203D820680068C007F6D1A1
:1010100084F8358084F83490E16C002910D001B058
:101020002046BDE8F04308470168C905D5D40168EA
:1010300021F01001016084F8358084F83490CCE709
:10104000BDE8F883980000202DE9F041044600F047
:1010500083F906465CB1022084F83500002584F847
:1010600034502068016821F0010101600DE0012089
:10107000BDE8F08100F070F9801B052805D920201B
:101080006065032084F83500F2E720680068C00737
:10109000F0D12268116820480140D4E901031843C7
:1010A000D4E903363343184363691843A3691843EB
:1010B000E3691843236A18430843616A042903D18A
:1010C000D4E90B1319430843106020684069666A2D
:1010D00020F0070130460E43012704280CD1A06AF6
:1010E0000643E06A40B12046FFF7EAFA20B140200B
:1010F000606584F83570BAE7206846612046FFF7DE
:10110000CBFA94F85C203F2191408160656584F8BA
:1011100035700020ACE700003F8010F070B5044649
:1011200000F01AF90546601C02D004480078044417
:1011300000F012F9401BA042FAD370BD8C000020D1
:1011400070470000044910B50A68024202D00860E6
:10115000FFF7F6FF10BD0000143C01402DE9F84FE9
:10116000DFF8BCA10022012503264FF00F090AF188
:10117000040BAAF1040E00BF0B6805FA02F4234029
:10118000A34270D10F7907F00307012F01D0022F7E
:1011900016D187684FEA420806FA08FC27EA0C07CE
:1011A000D1F80CC00CFA08FC4CEA070CC0F808C0D7
:1011B0004768A7430C79C4F3001494403C4344604F
:1011C0000C79E443A4070AD0C4684FEA420C06FA3B
:1011D0000CF7BC438F6807FA0CF72743C7600C79FC
:1011E00004F00304022C12D1D40800EB840CDCF8C8
:1011F00020405707FF0E09FA07F824EA0804D1F83F
:10120000108008FA07F848EA0408CCF8208004683F
:101210004FEA420C06FA0CF7BC430F7907F00307BC
:1012200007FA0CF7274307604C6814F4403F70D06E
:101230003C4C276847F480472760246822F0030766
:1012400004F480440094384C07EB040CDCF80848A4
:1012500097074FEA177809FA08F7BC43334FB842AB
:1012600002D1002724E054E0314FB84201D10127D8
:101270001EE0304FB84201D1022719E02E4FB8428C
:1012800001D1032714E02D4FB84201D104270FE00C
:101290002B4FB84201D105270AE02A4FB84201D1AD
:1012A000062705E0284FB84201D1072700E00827AC
:1012B00007FA08F72743CCF80878DAF800405746D1
:1012C000D1F804C09C435FEACC2C00D51C433C60A1
:1012D000DBF800405F46D1F804C09C435FEA8C2CE9
:1012E00000D51C433C60DEF800407746D1F804C0CE
:1012F0009C435FEA8C3C00D51C433C60084F083F90
:101300003C68D1F804C09C435FEACC3C00D51C4348
:101310003C60521C102AFFF42FAFBDE8F88F00008C
:10132000083C0140443802400030014000000240C7
:101330000004024000080240000C0240001002407D
:101340000014024000180240001C02400AB18161F2
:1013500070470904FBE700000148806870470000FF
:101360008C00002002488168027811448160704737
:101370008C0000200B4810B5016841F40071016039
:10138000016841F480610160016841F4807101608D
:10139000032000F099F8052000F006F800F04AF864
:1013A000002010BD003C024030B505461C4887B007
:1013B0000024016841F001010160006806A900F005
:1013C0000100009001A800F065FE00F099FE1549AB
:1013D0004000B0FBF1F11548134A491E026040F28B
:1013E000E732C0E90324C0E90114846101F05EF929
:1013F000040012D10D4801F0A5F904000DD1192007
:1014000000F034F8102D07D200222946192000F0F0
:101410003BF80748056000E0012407B0204630BDD6
:101420004438024040420F000000014040070020C5
:10143000900000200C4882B0016841F480410160B6
:10144000006800F4804000900748001F016841F0E8
:10145000805101600068002200F0805000900F2150
:10146000901E02B000F010B844380240002809DB9A
:1014700000F01F02012191404009800000F1E020AE
:10148000C0F8001170470000F0B40E4B1B680C460A
:10149000C3F30223C3F10705042D00D90425191D48
:1014A000072901D2002300E0DB1E012606FA05F120
:1014B000491E214099409E40761E16403143F0BCA3
:1014C00004F05BB90CED00E0064900F00702086883
:1014D0004FF6FF03184040EA0220034A1043086019
:1014E000704700000CED00E00000FA05704700684E
:1014F000416200207047F0B50368586A39B19C6AB0
:101500004FF4827600EB144400204D1E0AE040EABE
:10151000024098620FE006EB8007DF59401C04EBA5
:101520001744C0B2A842F6D344EA02404FF4807296
:1015300002EB810158500020F0BDD0F8080502F000
:10154000C3BF01EBC10200EB8202D0F80805D26CE8
:1015500002F018BF01EBC10200EB8202D0F80805CF
:10156000D2F88C2202F069BFD0F8080502F0AEBFB5
:101570000A0601F00F0101EBC10100EB810101D569
:101580003C3101E001F51F71006803F0E3BE70B566
:1015900004460B0601F00F0000EBC00104EB8101D3
:1015A0004FF001024FF0000503D581F83D203C319A
:1015B00003E081F87D5201F51F71087094F8BC04B6
:1015C000012808D084F8BC24206803F07DFB84F84F
:1015D000BC54002070BD022070BD70B5044601F0FF
:1015E0000F006268904201D9012070BD0B0601F026
:1015F0000F0101EBC10104EB81014FF001024FF03B
:10160000000503D581F83D203C3103E081F87D528F
:1016100001F51F718D70087094F8BC04012808D082
:1016200084F8BC24206803F04BFD84F8BC540020EF
:1016300070BD022070BD01F00F0101EBC10100EB94
:101640008100D0F89C0270472DE9F04104460F0656
:1016500001F00F0000EBC00104EB81014FF0010627
:101660004FF0000503D581F83D603C3103E081F87F
:101670007D5201F51F710870CA600B714A7802B182
:101680000881022B00D14D7194F8BC04012809D0C7
:1016900084F8BC64206803F06FFA284684F8BC54D0
:1016A000BDE8F0810220FBE770B50C4601F00F05A4
:1016B00005EBC50100EB8101C1F89432C1F88C2221
:1016C0000023C1F89C3281F87D3281F87C52036995
:1016D00001F51F71012B00D14A612207027C0068CD
:1016E00003D003F045FD002070BD03F02FFCFAE7A6
:1016F00070B504460D4601F00F006168884201D9BB
:10170000012070BD29064FF000064FF0010207D5F9
:1017100000EBC00104EB810181F83D203C3107E082
:1017200005EBC50104EB810181F87D6201F51F71B4
:101730008A70087094F8BC04012807D084F8BC248F
:10174000206803F0E9FC280702D007E0022070BD02
:10175000217C04F2C442206803F086FC84F8BC6457
:10176000002070BD70B50C4601F00F0505EBC501FA
:1017700000EB81014B65CA640023CB65012381F82E
:101780003D3001F83C5F0369012B00D14A6122071B
:10179000027C006803D003F0EBFC002070BD03F076
:1017A000D5FBFAE72DE9FC5F05680446284603F0FF
:1017B00072FE00287DD1206803F099FE002878D0C1
:1017C000D5F80808C0F30D20C4F8FC04206803F025
:1017D0008EFE800704D52068416901F00201416155
:1017E000206803F084FEC10604F2C440009034D5A2
:1017F0002068816921F0100181612F6A07F00F00D4
:1018000000EBC00004EB8006C7F3434006F51F76EB
:10181000022802D0062811D01AE047F6F0700742DD
:1018200016D0C7F30A1217462846316903F063FE43
:10183000306938443061306A384408E0082228466C
:10184000009903F058FE306AC7F30A110844306269
:101850002068816941F010018161206803F047FE32
:1018600000034FF0080B4FF0000A4FF001097CD540
:101870000026206803F01AFE074674E0F80770D0CF
:10188000F1B2206803F02BFE8046C00707D005EBBD
:101890004611C1F8089B3146204601F077FD5FEA0A
:1018A000087024D505EB4611C1F808BB2068016C0F
:1018B00000E025E200EB46100191D0F8082BFC4B2C
:1018C000994205D9110403D54FF40041C0F8081B13
:1018D000204600F005FBF6490198884207D92069A7
:1018E000012804D120680121009A03F0BDFB5FEAC2
:1018F000C86004D505EB46111020C1F8080B5FEA5B
:1019000088701DD56869000605D5D5F8040840F42F
:101910008061C5F8041806EBC60004EB800090F85F
:101920007F1200F51F70012905D180F803A0F1B2E4
:10193000204600F0EBF905EB46110220C1F8080B38
:101940005FEA886004D505EB46102021C0F8081B2B
:101950005FEA884005D505EB46104FF40051C0F80A
:10196000081B7F08761C002F88D1206803F0BFFD7C
:1019700040036FD5206803F092FD0746002667E01C
:10198000F80763D0F1B2206803F097FD8046C007E6
:1019900023D006F00F0209FA02F0D5F8342882436A
:1019A000C5F8342805EB4610C0F8089920690128CD
:1019B0000FD106EBC60004EB8000D0E912211144E0
:1019C000C16436B9606D20B920680121009A03F026
:1019D0004BFBF1B22046FFF7B4FD5FEA087003D578
:1019E00005EB4611C1F808B95FEAC86004D505EBFC
:1019F00046111020C1F808095FEA486004D505EBDC
:101A000046104021C0F808195FEA887017D53146A2
:101A1000284603F013FD06EBC60004EB800090F8A7
:101A20003F103C30012905D180F803A0F1B22046D7
:101A300000F068F905EB46110220C1F808095FEAD9
:101A4000086003D53146204601F006FD7F08761C6C
:101A5000002F95D1206803F04AFD002811DAD5F84F
:101A6000040820F00101C5F8041894F8F4040128D2
:101A70002BD0204600F018FA2068416901F000419F
:101A80004161206803F033FD00050BD5D5F8080847
:101A9000C00702D0204600F04BFA2068416901F4EB
:101AA00000614161206803F022FDC00466D5D5F8CD
:101AB000040820F00100C5F804081021206803F094
:101AC000BDFC00214FF67F321FE084F8F4A4002112
:101AD0002046FFF70BFDCFE705EB4110C0F80829C2
:101AE000D0F8003923F40013C0F80039C0F8082BEF
:101AF000D0F8003B23F40013C0F8003BD0F8003BC3
:101B000043F00063C0F8003B491C60688842E3D89A
:101B1000D5F81C0840F00111C5F81C18206B0028EE
:101B200028460DD0D0F8840840F00B01C5F8841881
:101B3000D5F8440840F00B012846C5F844180DE0DC
:101B4000D0F8140842F22B010843C5F81408D5F860
:101B5000100840F00B012846C5F81018D0F800080E
:101B600020F4FE61C5F80018217C2068009A03F07B
:101B70007BFA2068416901F480514161206803F0DB
:101B8000B6FC800415D5206803F036F8206803F011
:101B900075FCE06000F09EFA0146227B206803F0AD
:101BA00009FD204600F06AF92068416901F40051FE
:101BB0004161206803F09BFC000707D5204600F038
:101BC00077F92068416901F008014161206803F05C
:101BD0008EFC000616D5A86920F08000A8610126B9
:101BE0000DE000BF06EBC60004EB800090F87F021A
:101BF000012803D1F1B22046FFF7BAFC761C6068D9
:101C0000B042EFD8206803F072FCC00221D5012653
:101C10004F4616E005EB4610D0F8001906EBC6005B
:101C200004EB800090F84020012A09D1002907DA4E
:101C300080F83F70F0B240F080012046FFF798FC3A
:101C4000761C6068B042E5D82068416901F48011D3
:101C50004161206803F04BFC800234D501204B46E3
:101C600029E000BF05EB4011D1F8001B00EBC002DA
:101C700004EB820696F88022012A1BD1002919DA8A
:101C800094F8FC2401F4803102F00102914211D158
:101C900086F87F32A96941F08002AA616969090664
:101CA00008D4D5F8040840F40070C5F8040805E02D
:101CB0000A30544F401C61688142D3D82068416982
:101CC00001F400114161206803F011FC400007D5C8
:101CD0002046FFF732FC2068416901F080414161F4
:101CE000206803F004FC40070AD5206845686807AF
:101CF00002D52046FFF738FC20684168294341603F
:101D0000BDE8FC9FD0F8080502F034BCD0F8080507
:101D100002F044BC2DE9F0418AB0040005D094F8EB
:101D2000BD042668002520B108E001200AB0BDE806
:101D3000F08184F8BC54204600F05EF8032084F85B
:101D4000BD04F06BC00500D42561206803F0F8F8ED
:101D500004F11001282288466846FEF77CFB94E8CF
:101D60000F0002F057FF0226C8BB0021206803F0D5
:101D7000E1FB002001270EE000EBC00104EB810134
:101D800081F83D7001F83C0F08810D71CD600D6147
:101D9000401CC0B28D6161688142EDD8002011E025
:101DA00000EBC00104EB810181F87D5281F87C02D7
:101DB00081F88052C1F88852C1F88C52401CC0B2E0
:101DC000C1F8945261688142EAD8282241466846A7
:101DD000FEF741FB94E80F0002F0F8FF10B184F821
:101DE000BD64A2E784F8385084F8BD74206802F01E
:101DF000DFFF00209AE7000010B586B004461421EA
:101E00006846FEF75AFB2068B0F1A04F2FD1194861
:101E10000021026842F001020260006800F0010047
:101E200005904FF4E05000900220CDE9010103201D
:101E300003900A20049069460F48FFF78FF90D4878
:101E4000001D016841F0800101600A4814300168FA
:101E500041F4804101600068002200F48040059058
:101E600005214320FFF710FB4320FFF7FFFA06B0E0
:101E700010BD0000303802400000024070B504463A
:101E8000C068012570B1022801D0FEF74AFC29463E
:101E9000D4F8080502F0F0FBD4F80805BDE870405E
:101EA00002F0A5BB0025F2E7D0F8080502F0CDBB93
:101EB000D0F8080502F0D3BB10B5044690F8BC0476
:101EC00001280BD0012084F8BC0484F83810206865
:101ED00003F05EFB002084F8BC0410BD022010BD9E
:101EE000D0F8082500F2C441104602F0D1BB10B56D
:101EF0000446006894F8BC14012906D0012184F836
:101F0000BC14A16A012902D008E0022010BDA16919
:101F1000012903D0816B41F480318163206803F093
:101F200068FA206802F036FF002084F8BC0410BD77
:101F300010B50446D0F8080502F0ECFB2068D0F894
:101F4000001E41F00101C0F8001E206A002804D0E4
:101F50000248016841F00601016010BD10ED00E08B
:101F60002DE9F0470E46050065D0DFF81481D8F85A
:101F70000000F7B200F00700B04207D288F8007006
:101F8000D8F8000000F00700B04254D128683D4C5A
:101F9000810712D5400703D5206840F4E050206047
:101FA0002878000703D5206840F46040206020684E
:101FB000A96820F0F000084320602878C0072DD0E1
:101FC000304968680839012812D0022813D0032844
:101FD00011D00968890700292DDA216821F0030151
:101FE00001432160FFF7B8F9814641F2883A0EE0DB
:101FF00009688903EFE709688901ECE7FFF7ACF9A5
:10200000A0EB0901514502D90320BDE8F087206803
:10201000696800F00C00B0EB810FEFD1D8F8001028
:10202000404601F00701B14207D90770006800F08F
:102030000700B04201D00120E7E72878400705D526
:102040002068E96820F4E050084320602878000701
:1020500006D52068296920F4604040EAC10020606C
:1020600000F05EF82168084AC1F30311515CC840D2
:102070000649086006480068FFF796F90020C4E7A3
:10208000003C024008380240EC660008980000203E
:10209000900000200F2202600C4A136803F0030333
:1020A0004360136803F0F0038360136803F4E053A4
:1020B000C36012684FF4E05303EAD202026104489D
:1020C000006800F007000860704700000838024010
:1020D000003C024001480068704700009800002062
:1020E0000448054900680968044AC1F38221515C2B
:1020F000C84070479800002008380240FC6600087D
:102100000448054900680968044AC1F34231515C3A
:10211000C84070479800002008380240FC6600085C
:10212000154810B5006810F00C02144813D014497B
:10213000042A0FD0082A0ED10F4C241F22682368CE
:1021400002F03F025B0207D52068C0F38810A0FBB5
:10215000010106E0084610BD2168C1F38811A1FB0A
:1021600000010023FEF700F92168C1F30141491C79
:102170004900B0FBF1F010BD083802400024F40023
:10218000001BB7002DE9F84F04006ED02078DFF86F
:102190004C93C007A9F104054AD009F10400016875
:1021A000C1F38101012908D00068C0F38100022831
:1021B0000AD1D9F80000400206D52868800337D537
:1021C00060680028E1D033E06068B0F5803F10D04F
:1021D000B0F5A02F286810D020F48030286028683F
:1021E00020F4802028606068A8B1FFF7B5F80646A3
:1021F0000DE0286840F48030F4E740F48020286047
:10220000F7E700BFFFF7A8F8801B642873D8286899
:102210008003F7D50CE0FFF79FF8064605E000BF06
:10222000FFF79AF8801B6428F0D828688003F7D459
:102230002078DFF8AC8280074FF0000A3ED5A7482F
:10224000001D016811F00C0F08D00068C0F3810078
:1022500002280BD1D9F80000400207D42868800773
:1022600016D5E068012800D112E033E1E068B8B18A
:102270000120C8F80000FFF76FF8064605E000BF30
:10228000FFF76AF8801B0228C0D828688007F7D5B6
:102290002868216920F0F80040EAC10028600DE0BC
:1022A000C8F800A0FFF758F8064604E0FFF754F816
:1022B000801B02281FD828688007F7D420780007E1
:1022C00022D5864F87486169703771B1012101605D
:1022D000FFF742F8064604E0FFF73EF8801B0228AD
:1022E00009D838688007F7D50EE0C0F800A0FFF7DE
:1022F00033F8064605E082E0FFF72EF8801B02283F
:102300007DD838688007F7D42078400768D5DFF893
:10231000CCB100270BF13C0BDBF80000C0000BD464
:10232000DBF8001041F08051CBF80010DBF8000022
:10233000012700F0805000906B4E3068C00510D42B
:10234000306840F480703060FFF706F8009005E0D8
:10235000FFF702F80099401A022850D83068C005EB
:10236000F6D55E4EA0686C3601280FD0052830687F
:1023700010D020F001003060306820F004003060A0
:10238000A068B8B1FEF7E8FF00900FE0306840F0B9
:102390000100F4E740F004003060F7E7FEF7DCFFEF
:1023A0000099411A41F28830814266D8306880072E
:1023B000F4D50EE0FEF7D0FF009007E0FEF7CCFF6B
:1023C0000099411A41F28830814256D8306880071E
:1023D000F4D42FB1DBF8001021F08051CBF80010BD
:1023E000A069C8B33D49091D0968C1F381010229EB
:1023F0004AD00228504607D0C8F8600000E03CE010
:10240000FEF7AAFF04463BE04746C8F86000FEF727
:10241000A3FF064605E000BFFEF79EFF801B0228D3
:102420002BD828688001F7D4D4E907010843A16AB2
:102430002E4A490802EB0141626A41EA82110843CF
:1024400094F82C1040EA0161C9F8001001203866A8
:10245000FEF782FF044606E03EE000BFFEF77CFF89
:10246000001B022809D828688001F7D534E000BF96
:10247000FEF772FF001B022802D90320BDE8F88F87
:1024800028688001F4D427E00128F7D0D9F80000AB
:10249000E26900F4800191421CD1226A00F03F0100
:1024A000914217D147F6C071626A0140B1EB821FB9
:1024B00010D1A26A4FF0FF3300F4403103EB520217
:1024C000B1EB024F06D194F82C1000F07060B0EB25
:1024D000016F01D00120D1E70020CFE7043802408E
:1024E00000004742800E4742007000400000FFFF9E
:1024F00070B5040009D0606A002540B125616561AE
:10250000A56294F8510040B10CE0012070BD6068F4
:10251000B0F5827FF4D0E561F2E784F850502046B0
:1025200000F044F8022084F851002068016821F08E
:1025300040010160A088218900F4827001F4044107
:102540000843A18901F400610843217C01F00201E4
:102550000843217D01F001010843218B01F4007142
:102560000843217F01F03801084394F8201001F05E
:1025700080010843218D01F400510843216808605F
:10258000A069042101EA104094F8241001F0100120
:102590000843216848602068C16921F40061C16175
:1025A0006565012084F85100002070BD2DE9F043DD
:1025B00087B0064614216846FDF77FFF344930682E
:1025C000884261D133480025016841F4805101609F
:1025D000006800F4805005902E481438016841F0DE
:1025E00002010160016801F002010591016841F0FA
:1025F000010101600068022400F00100059018202C
:1026000001274FF003084FF005098DE89103694653
:102610002148FEF7A3FD80208DE8910369461F48FD
:10262000FEF79CFD1F4C1E484FF0C0672060C4E9B8
:1026300001754FF48068C4E9035865614FF40039AF
:10264000A561C4E9075920466562FEF7FDFC08B1A3
:10265000FEF767F8F464A663124C11486034483002
:10266000E4E802074020A4E821010E4844F8145988
:102670006030A561C4E907596562FEF7E5FC08B161
:10268000FEF74FF8B464A66307B0BDE8F08300001E
:102690000030014044380240000402400000024083
:1026A00010640240900400207047704710B5040089
:1026B00003D094F83D0010B107E0012010BD0020C8
:1026C00084F83C00204600F01FF8022084F83D000A
:1026D000211D206800F0D0FF012084F8460084F816
:1026E0003E0084F83F0084F8400084F8410084F8FC
:1026F000420084F8430084F8440084F8450084F8DC
:102700003D00002010BD000008B500680B4988425C
:1027100012D10B48016841F40031016000680022C9
:1027200000F40030009005211920FEF7ADFEBDE851
:1027300008401920FEF79ABE08BD00000044014081
:102740004438024090F83D10012901D00120704723
:10275000022180F83D100168CA6842F00102CA6097
:1027600000681149884214D0B0F1804F11D00F4950
:1027700088420ED00E4988420BD00E49884208D0BC
:102780000D49884205D00D49884202D00C49884243
:1027900004D1816801F00701062903D0016841F0E6
:1027A000010101600020704700000140000400406A
:1027B00000080040000C00400004014000400140BF
:1027C00000180040704770B50446006801694FF07A
:1027D0000005C943890715D4C168C943890711D4C5
:1027E000E91E01610120207720688069800720466A
:1027F00002D0FFF7E7FF04E000F0C2F8204600F047
:1028000054F9257720680169C943490717D4C1687D
:10281000C943490713D46FF00401016102202077F6
:102820002068806910F4407F204602D0FFF7CAFF7D
:1028300004E000F0A5F8204600F037F9257720687D
:102840000169C943090716D4C168C943090712D4ED
:102850006FF008010161042020772068C0698007BB
:10286000204602D0FFF7AEFF04E000F089F82046D2
:1028700000F01BF9257720680169C943C90617D400
:10288000C168C943C90613D46FF010010161082063
:1028900020772068C06910F4407F204602D0FFF7FF
:1028A00091FF04E000F06CF8204600F0FEF8257778
:1028B00020680169C943C90708D1C168C943C9076C
:1028C00004D1891E0161204600F0F0F820680169FA
:1028D000C943090609D4C168C943090605D46FF084
:1028E000800101612046FFF7DFFE20680169C943CE
:1028F000490609D4C168C943490605D46FF04001AF
:102900000161204600F0DCF820680169C9438906AE
:102910000BD4C168C943890607D46FF02001016157
:102920002046BDE87040FFF7C0BE70BD10B586B050
:10293000044614216846FDF7C0FD0E492068884210
:1029400015D10D48016841F02001016000680121A6
:1029500000F020000590402000900220CDE9010108
:1029600003900320049069460448FEF7F7FB06B085
:1029700010BD000000440140303802400014024005
:10298000704770B5044690F83C0000260D460128BB
:102990000FD0012084F83C006AB1042A1DD0082A17
:1029A0002FD00C2A3FD00126002084F83C0030466E
:1029B00070BD022070BD206800F0C2FE20688169F1
:1029C00041F0080181612068816921F00401816181
:1029D000206881692A69114311E0206800F0E0FE57
:1029E0002068816941F4006181612068816921F476
:1029F00080618161206881692A6941EA02218161DF
:102A0000D2E7206800F002FF2068C16941F00801A8
:102A1000C1612068C16921F00401C1612068C169F8
:102A20002A69114311E0206800F024FF2068C16981
:102A300041F40061C1612068C16921F48061C16114
:102A40002068C1692A6941EA0221C161ACE710B579
:102A5000040003D094F83D0010B107E0012010BD40
:102A6000002084F83C00204600F01EF8022084F884
:102A70003D00211D206800F0FFFD012084F8460084
:102A800084F83E0084F83F0084F8400084F8410058
:102A900084F8420084F8430084F8440084F8450038
:102AA00084F83D00002010BD70477047006803495E
:102AB000884201D1FEF756BC70470000000001407B
:102AC0007047704770470000F8B501680446086811
:102AD000CA684B6910F00F0F4FF0000559D003F092
:102AE000010602F49077374365D0C10705D0D105C0
:102AF00003D5216C41F001012164410705D5D907B7
:102B000003D0216C41F002012164810705D5D9076A
:102B100003D0216C41F004012164010707D502F0C4
:102B20002001314303D0216C41F008012164216C64
:102B300000293AD0800604D5900602D5204600F040
:102B400014FF20684069216CC0F38010090700D48D
:102B500060B3204600F0E2FE20684069400621D5BF
:102B60002068143050E8001F21F0400140E80012B6
:102B7000002AF5D1A06BA8B16C490165A06BFEF7E6
:102B800081F9002811D0A06B016D01B0BDE8F040C3
:102B9000084783060FD593060DD52046BDE8F840BB
:102BA00000F0E3BE2046FFF78DFFF8BD2046FFF79B
:102BB00089FF2564F8BD266B2023012E79D1C60636
:102BC00077D5D60675D508684868009048694006EC
:102BD00040D5A16B086840680004000CEAD0A28DC3
:102BE0008242E7D9E085C869B0F5807F2DD02068A2
:102BF0000C3050E8001F21F4807140E80012002AD8
:102C0000F5D12068143050E8001F21F0010140E8A0
:102C10000012002AF5D12068143050E8001F21F07E
:102C2000400140E80012002AF5D184F83E302563C7
:102C300020680C3050E8001F21F0100140E800121D
:102C4000002AF5D1A06BFEF7D4F8A08DE18D401AD3
:102C500081B229E0A08DE18D401A81B2E08D00287B
:102C6000A8D00029A6D020680C3050E8002F22F40C
:102C7000907240E80026002EF5D12068143050E80C
:102C8000002F22F0010240E80026002EF5D184F842
:102C90003E30256320680C3050E8002F22F01002EF
:102CA00040E80023002BF5D12046FFF70AFFF8BDCE
:102CB000FFE705062BD5150629D594F83D002128F8
:102CC000F5D1A068B0F5805F01D12069B0B1206A6C
:102CD000411C2162216800784860E08C401E00049D
:102CE000000CE084E3D12068C16821F08001C1605C
:102CF0002068C16841F04001C160D8E7206A0088BF
:102D0000C0F308004860206A801C2062E5E74006A6
:102D1000CDD55006CBD5CA68204622F04002CA6005
:102D200084F83D3000F0EDF8C1E700000D390008EF
:102D300070B5040004D094F83D00002510B106E001
:102D4000012070BD84F83C50204600F023F8242078
:102D500084F83D002068C16821F40051C16020461C
:102D600000F064FE2068016921F49041016120684F
:102D7000416921F02A0141612068C16841F4005194
:102D8000C1602564202084F83D0084F83E000020C6
:102D900070BD00002DE9F04387B006461421684657
:102DA000FDF78BFB4F484E4D316802220323002470
:102DB00007154FF48079A94239D14A4910310D687D
:102DC00045F480250D60096801F4802105910168B2
:102DD00041F0040101600068694600F004000590BC
:102DE00098028DE815000720CDE903303E48FEF734
:102DF000B5F93F4D3D4828607804C5E90104C5E9AF
:102E000003476C61C5E906494FF44030C5E9080441
:102E10002846FEF719F908B1FDF783FCB5630022D7
:102E200005212720AE63FEF72FFB272053E0314D0D
:102E3000A94252D12B4914310D6845F020050D608F
:102E4000096801F020010591016841F0400101602D
:102E50000068694600F0400005904FF484408DE81A
:102E600015000820CDE903302348FEF777F9204DFF
:102E7000224860354FF020682860C5E90184C5E923
:102E800003476C61C5E906492C6228466C62FEF76F
:102E9000DBF808B1FDF745FCB563AE63144D174888
:102EA000C0357830E5E80208402091C5104845F863
:102EB0001449C030AC61EC612C626C62FEF7C4F85E
:102EC00008B1FDF72EFC7563002205214720AE6393
:102ED000FEF7DAFA4720FEF7C9FA07B0BDE8F0833B
:102EE000004800403038024000080240286002409C
:102EF000200600200014014000180240286402400F
:102F000070477047FEE7000010B588B003F066F820
:102F1000FDF73EFBFDF75EFB1C220B496846FDF703
:102F20009AFA0021684602F028FD084C206002F061
:102F300035FC02F0EFFCA0600548006803F032F9B0
:102F400003F06CF808B010BDAC6600080C0000205F
:102F500004000020F0B500230A24302537261F4640
:102F600011E000BFB4EB107F02D905EB107C01E04B
:102F700006EB107C01F813C001EB430C00015B1C55
:102F80008CF80170DBB29342ECD3F0BD104810B561
:102F90000E4901600321416000214FF4102281603D
:102FA000C0E903124FF40012426101760122427619
:102FB0008276C17601774177FDF7C1FD002803D005
:102FC000BDE81040FDF7ADBB10BD0000006400403F
:102FD000E8030020104810B50E490160032141604C
:102FE00000214FF410228160C0E903124FF4001257
:102FF00042610176012242768276C176017741777D
:10300000FDF79DFD002803D0BDE81040FDF789BB0A
:1030100010BD000000680040100400201D4808B5E5
:10302000016841F480010160016801F480010091B0
:10303000016841F4001101600068002200F40010F2
:10304000009005210C20FEF71FFA0C20FEF70EFA67
:10305000002205213820FEF717FA3820FEF706FA7D
:10306000002205213920FEF70FFA3920FEF7FEF97C
:10307000002205213B20FEF707FA3B20FEF7F6F978
:10308000002205214520FEF7FFF9BDE80840452054
:10309000FEF7ECB93038024010B58EB01C220B4957
:1030A0006846FDF7D8F90021684602F066FC084C36
:1030B00006491C2220601C3107A8FDF7CCF900212D
:1030C00007A802F05AFC60600EB010BD74660008DC
:1030D000000000202DE9F04186B014216846FDF77C
:1030E000ECF943480025016841F0020101600168E4
:1030F00001F002010591016841F0400101600168A1
:1031000001F040010591016841F001010160016891
:1031100001F001010591016841F0080101600168B9
:1031200001F008010591016841F0040101600168A6
:1031300001F004010591016841F08001016001681E
:1031400001F080010591016841F0200101600068F3
:10315000012200F02000274E14020590214630463F
:10316000FEF7F4F8244F012210213846FEF7EEF85E
:10317000DFF88880012211464046FEF7E7F8009408
:103180000124CDE90145694630460395FDF7E6FF88
:103190001020CDE90004022569463846CDE90245F4
:1031A000FDF7DCFF302000904FF40410CDE901045E
:1031B00069463046FDF7D2FF0094694640460194C7
:1031C000CDE90245FDF7CAFF002205210A20FEF7DE
:1031D0005BF90A20FEF74AF9002205211720FEF7C5
:1031E00053F91720FEF742F906B0BDE8F081000060
:1031F0003038024000080240000002400004024053
:10320000104810B50E4901604FF4827141600021F1
:1032100002228160C0E903120122426152028261EE
:103220001022C0E90721416281620A21C162FFF7D1
:103230005FF9002803D0BDE81040FDF772BA10BD59
:10324000003001403804002010B588B01C216846C9
:10325000FDF733F9154814490024016040F2473165
:10326000C0E9011440F2CF71C0E903148461FFF793
:103270001DFA08B1FDF755FA0C48FFF7E8FB08B155
:10328000FDF74FFA6020CDE9000402940022694660
:1032900006480494FFF775FB08B1FDF742FA0348AE
:1032A000FFF744FB08B010BD00440140500500206A
:1032B0000D4810B50B4901600C49416000214FF4E5
:1032C00080628160C0E903120C22C0E90521C1615E
:1032D000FFF72EFD002803D0BDE81040FDF721BA0E
:1032E00010BD00000048004098050020A0860100A5
:1032F0000C4810B50A4901604FF4E13141600021EA
:1033000081600C22C160C0E904128161C161FFF7D4
:103310000FFD002803D0BDE81040FDF702BA10BD34
:1033200000140140DC05002010B500220F491048B0
:1033300001F003F808B1FDF7F4F90E490C4801F06B
:1033400011FA08B1FDF7EDF90B49094800F0CEFD7F
:1033500008B1FDF7E6F9064801F088FA002803D025
:10336000BDE81040FDF7DDB910BD000028000020C9
:103370006C0900205C01002078000020FEE7FEE7D9
:103380000148FEF70FBA0000682000202DE9F04147
:1033900003680D4604461E6C03EB4511D1F8080B7B
:1033A000D4F810E04FF400474FF0200C04F2C44270
:1033B000BEF1010F09D0DFF898E0764539D102045B
:1033C00032D500BFC1F8087B3FE0224B5FEA007EA8
:1033D00004D59E4239D90004F4D436E05FEA806E09
:1033E00002D5C1F808CB30E010F0280F2DD19E4255
:1033F00001D90004E6D405EBC50004EB8000D1F848
:10340000101BD0F89832C1F31201591AC0F89C125F
:1034100000F51F70ADB983691BB1026911440161E8
:103420000FE0012120680AE080060AD5C1F808CB28
:1034300007E035B9D4F8940218B90021184601F014
:1034400013FEE9B22046FEF785F80020BDE8F081C2
:103450000A31544F0A30544F2DE9F84F0E4601EB14
:10346000C60100EB810481460568616DE06D3C3466
:10347000884202D90120BDE8F88F081AE16881422C
:1034800000D20846C01C870805EB46181BE000BFA9
:10349000A0EB010AE068504500D282460AF1030021
:1034A000870899F8100000901FFA8AF3F2B22846B4
:1034B000216902F0F3F8216901EB0A002061216A19
:1034C00001EB0A002062D8F8180980B2B84205D38F
:1034D000216AA069814201D20028D9D1216AA0695C
:1034E000884208D806F00F0101208840D5F834182A
:1034F0008143C5F834180020BDE7000030B5144BF7
:103500001C68656945F0400565611B68DC6844F02E
:103510001004DC600F4B1C68256825F00105256050
:103520001C682568ED07F7D11D680B4CAC601C6862
:10353000E06018680161186842601868016841F429
:10354000802101601868016841F00101016030BD0F
:1035500098050020200600200448004001784078AB
:1035600041EA00207047000002F0B0FF0349086004
:103570000121024802F0D0FDFAE700001800002007
:10358000FFF7D2FE012002F0ECF9FBE710B5502066
:1035900080F31188BFF34F8FBFF36F8F02F09CFF52
:1035A00018B104494FF080500860002080F3118862
:1035B00010BD000004ED00E030B593B03021684646
:1035C000FCF77BFF14210CA8FCF777FF1D480025B2
:1035D000016841F080510160006800F08050119056
:1035E0001948016841F4804101600068022400F438
:1035F0008040119001200090000401908001CDE9ED
:10360000064006200890A820CDE9090407200B9069
:103610006846FEF7B7FD08B172B6FEE70CA90F20A9
:1036200081E831004FF4A0500F904FF4805010907B
:1036300005210CA8FEF794FC002801D072B6FEE725
:1036400013B030BD403802400070004002480168AD
:1036500041F470010160704788ED00E010B5044846
:10366000FFF7B1F8BDE810400248FFF7ACB8000022
:103670004007002050050020F0B50268254C264D7B
:10368000264E274F274B4FF0804CA04209D0604573
:1036900007D0A84205D0B04203D0B84201D098422A
:1036A00004D122F0700E4A6842EA0E02A0421BD0FA
:1036B000604519D0A84217D0B04215D0B84213D0F7
:1036C000984211D0184DA8420ED0184DA8420BD0E8
:1036D000174DA84208D0174DA84205D0164DA84254
:1036E00002D0164DA84203D122F44075CA682A437D
:1036F0004D6922F080022A4302608A68C2620A6829
:103700008262A04201D0984201D10969016301217E
:103710004161F0BD0000014000040040000800408D
:10372000000C004000040140004001400044014002
:103730000048014000180040001C004000200040EC
:10374000F0B5026A22F001020262036A42688469EB
:10375000124E24F073050C682C4323F002058B688D
:103760002B430D4DA84201D0B04205D123F00807EC
:10377000CB683B4323F00403A84201D0B04205D1FB
:103780004D6922F4407215438A692A43426084617C
:10379000496841630362F0BD00000140000401403C
:1037A000F0B5026A22F010020262026A436884697C
:1037B0000D6824F4E64444EA05248D6822F02002D2
:1037C00042EA05120F4D104EA84201D0B04206D178
:1037D000CF6822F0800242EA071222F04002A8429B
:1037E00001D0B04207D14D6923F4406343EA850319
:1037F0008D6943EA8503436084614968816302629D
:10380000F0BD00000000014000040140F0B5026A74
:1038100022F480720262026A4368C46922F4007270
:1038200024F073050C68124E2C438D6842EA052281
:103830000E4DA84201D0B04206D1CF6822F40062FA
:1038400042EA072222F48062A84201D0B04207D1A6
:103850004D6923F4405343EA05138D6943EA051388
:103860004360C4614968C1630262F0BD0000014069
:103870000004014030B5026A22F480520262046AF8
:103880004268C3690D6823F4E64343EA05238D6863
:1038900024F4005444EA0534084DA84202D0084DEF
:1038A000A84204D14D6922F4804242EA8512426066
:1038B000C36149680164046230BD0000000001403A
:1038C0000004014008B5104D02F028F800242860DB
:1038D000204602F015F804EB440105EBC101641C1D
:1038E000E4B2C862042CF3D302F0F0FD0090064865
:1038F000FCF7B2FE02F072FB02F090FB0221684678
:1039000002F00AFCF0E700006408002010B5806BAC
:103910000021C185C184FFF7D5F810BD01680C31C5
:1039200051E8002F22F4907241E80023002BF5D1DA
:103930000168143151E8002F22F0010241E8002310
:10394000002BF5D1016B012909D101680C3151E837
:10395000002F22F0100241E80023002BF5D1202196
:1039600080F83E1000210163704708B590F83E10C2
:10397000222901D0022008BD82684FF480539A4268
:1039800001D1016921B1816A9A421BD04AB10AE092
:103990000268816A5268C2F308020A80816A891C3F
:1039A00008E0026972B10268526802F07F020A7090
:1039B000816A491C8162C18D491E0904090CC185B7
:1039C00003D019E002685268F1E70168CA6822F082
:1039D0002002CA600168CA6822F48072CA60016865
:1039E0004A6922F001024A61202180F83E10016BF1
:1039F000012903D0FFF784FA002008BD00210163EC
:103A000001680C3151E8002F22F0100241E8002338
:103A1000002BF5D101680A68D20602D50A68496808
:103A20000091818DFFF74DF8E6E7000070B5044680
:103A300000680169E26821F4405111430161216984
:103A4000A068E26908436169114308432168CA68B4
:103A500049F20C639A430243CA6020684169A26933
:103A600021F440711143416131492068884202D0FC
:103A70003049884202D1FEF743FB01E0FEF730FBFC
:103A8000E2690023192164253226B2F5004F6268ED
:103A900028D0A0FB0101930F9200FCF765FC0146C2
:103AA000B0FBF5F06FF01802504301EB800006EB1D
:103AB0000010B0FBF5F000F0F002B1FBF5F002EB06
:103AC0000012B1FBF5F06FF01803584301EB8000D2
:103AD00006EB0010B0FBF5F000F00F002168104479
:103AE000886070BDA0FB010192185B41FCF73CFCB3
:103AF0000146B0FBF5F00201B1FBF5F06FF01803E1
:103B0000584301EB800006EBC000B0FBF5F000F07D
:103B1000F80002EB4002B1FBF5F0584301EB8000E6
:103B200006EBC000B0FBF5F000F00700D6E70000A0
:103B3000001001400014014010B5044801F0C2FD1E
:103B4000BDE810400148FEF7BFBF00009805002007
:103B50000148FEF7B9BF0000DC0500202DE9F04167
:103B60000C46D0F8D412D0F8C82200EB8101D1F86D
:103B7000C01229B304F00F0606EB860300EB8305A1
:103B80000027AB694BB106EBC60602EB8602926CCE
:103B9000B3FBF2F602FB1632A2B1C1F81472D0F8F0
:103BA000D42200EB8200D0F8C40203692BB1D1F813
:103BB0000802224601F5047198470020BDE8F08113
:103BC0000320FBE700231A462146AF6100F0ABFD5E
:103BD000F3E770B50546D0F8D40205EB8000D0F8C5
:103BE000C04294B1284600F080FCC4F80C02D5F81D
:103BF000D412D4F8040205EB8101D1F8C412CA68CA
:103C000004F503719047002070BD032070BD0000D3
:103C100070B5224D0446297800F0ABFB28780026C9
:103C200000F00F0000EB800004EB800086846978D0
:103C3000204600F09EFB687800F00F0000EB80004B
:103C400004EB8000A0F86461A978204600F091FBA5
:103C5000A87800F00F0000EB800004EB8000868461
:103C6000C684D4F8D40204EB8000D0F8C01299B115
:103C7000D0F8C40240688047D4F8D40204EB800036
:103C8000D0F8C00200F073FFD4F8D40204EB800037
:103C9000C0F8C062C4F8BC62002070BD08010020FA
:103CA00010B5D0F8D41200EB8100D0F8C04284B136
:103CB000D0F8C41259B194F80002FF2807D08B68DD
:103CC00094F8012221469847FF2084F80002002042
:103CD00010BD032010BD00000A210180004870477C
:103CE0000C01002070B5064682210C4800F0D1FA84
:103CF00005460121094800F0CCFA04468121074815
:103D000000F0C7FA0DB11021A971402104B1A180C2
:103D100000B1818043203080004870BD1801002030
:103D200070B5064682210D4800F0B3FA0546012120
:103D30000A4800F0AEFA04468121084800F0A9FACA
:103D40000DB11021A9714FF4007104B1A18000B12F
:103D5000818043203080014870BD000018010020A0
:103D600070B5064682210C4800F093FA0546012101
:103D7000094800F08EFA04468121074800F089FACC
:103D80000DB11021A971402104B1A18000B1818041
:103D900043203080004870BD180100202DE9F04715
:103DA00004464FF40775284600F0E2FE06004FF087
:103DB000000863D02946FCF780FBD4F8D4023C4DC0
:103DC00004EB80004FF01009C0F8C062C4F8BC6278
:103DD000207C4FF4007A0127F0B340230222297897
:103DE000204600F0EFFB2878402300F00F0000EBA6
:103DF000800004EB8000878402226978204600F06E
:103E0000E1FB6878082300F00F0000EB800004EB72
:103E100080000322A0F86471A978204601F00F0108
:103E200001EB810104EB8101A1F82690A97800F053
:103E3000C9FBA87800F00F0000EB800004EB8000C5
:103E40008784C6F80482D4F8D402474604EB800085
:103E5000D0F8C402006800E018E006F5017680475B
:103E60003761776132687AB1207CF8B14023697894
:103E7000204600F0B3FB0020BDE8F087D4F8D41250
:103E800004EB8101C1F8C0820220F5E7534602220B
:103E90002978204600F096FB2878534600F00F0062
:103EA00000EB800004EB80008784A5E75346DEE743
:103EB0000801002010B5D0F8D41200EB8101D1F830
:103EC000C01259B1027C084C002AD1F8042207D054
:103ED0004023617800F082FB002010BD032010BD5C
:103EE0004FF40073F5E700000801002039B1D0F865
:103EF000D42200EB8200C0F8C412002070470320D7
:103F00007047D0F8D42200EB8200D0F8C00218B17C
:103F1000C0F804120020704703207047D0F8D43254
:103F200000EB8300D0F8C00228B1C0F81022C0F81E
:103F3000081200207047032070472DE9FC41064617
:103F4000D0F8D4020C4606EB80000021D0F8C072F5
:103F50008DF80010ADF804100D4637B1217811F03E
:103F600060022FD0202A4BD102E00320BDE8FC8163
:103F7000E288F2B109060DD5D0F8C402637839465B
:103F8000D0F808C01846E047E288072A00D907227F
:103F900039462DE0607887F80002E088402800D399
:103FA0004020C2B287F801223946304600F058F866
:103FB0002BE0D0F8C40263780022866821461846B8
:103FC000B04722E0607830B101281ED00A2809D01D
:103FD0000B2815D110E096F89C02032810D102227C
:103FE00001A905E096F89C02032809D1012269463F
:103FF000304600F04FF808E096F89C02032804D001
:104000002146304600F021F803252846AEE710B5DA
:10401000D0F8B82200245268904700B1032420460B
:1040200010BD0020704700207047134610B50A46A7
:10403000002100F0D3FA002010BD134610B50A4647
:10404000002100F070FB002010BD10B50446802157
:1040500000F04EFB2046BDE81040002100F048BBB8
:1040600010B50323C0F89432C0F858211346C0F8A5
:104070005C210A46002100F0B1FA002010BD10B505
:104080000521C0F8941200231A46194600F0A6FA3A
:10409000002010BD10B50223C0F89432826113468F
:1040A000C2610A46002100F03EFB002010BD10B5A1
:1040B0000421C0F8941200231A46194600F033FB7D
:1040C000002010BD10B50A46024903A000F005F912
:1040D000004810BD480C002043444320436F6E66E7
:1040E00069670000122008800048704748000020DF
:1040F00010B50A46024903A000F0EFF8004810BDD1
:10410000480C002043444320496E74657266616325
:10411000650000000420088000487047440000202B
:1041200010B50A46024903A000F0D7F8004810BDB8
:10413000480C002053544D6963726F656C6563745D
:10414000726F6E696373000010B50A46024903A0DE
:1041500000F0C3F8004810BD480C002053544D3304
:1041600032205669727475616C20436F6D506F72A6
:104170007400000010B51A2008800A480168001D6C
:104180000468001D0068081809D008220649FEF7D7
:10419000E1FE0549042210312046FEF7DBFE02480D
:1041A000801E10BD107AFF1F5E000020F8B5044687
:1041B0000020ADF8000048880D46010A08295FD2AA
:1041C000DFE801F05E0409175E5E3C45D4F8B412E6
:1041D000207C0A6819E0207C02260028D4F8B80266
:1041E00005D0C16A684688470146467039E0816A51
:1041F000F8E7C0B2062843D2DFE800F0030A101443
:10420000181CD4F8B402426805E0694690471CE0E7
:10421000D4F8B402826892B3207CF6E7D4F8B402F2
:10422000C268F8E7D4F8B4020269F4E7D4F8B4023B
:104230004269F0E7D4F8B4028269ECE7207CF0B977
:10424000D4F8B802416B68468847014609E0207CF3
:10425000A8B9D4F8B802016B684688470146072020
:104260004870EA888AB1BDF8000040B1824200D9A6
:104270000246ADF800202046FFF70CFFF8BDFFE72F
:1042800029462046FFF7E1FEF8E72046FFF70FFF3B
:10429000F4E778B50E4642880178002504468A4244
:1042A00012D9ADF800100AE0694600F00FF8417825
:1042B000052904D181780546B14205D000256188E1
:1042C000BDF800209142EFD8284678BD0A880378CF
:1042D0001A440A8001780844704770B5002300280A
:1042E0001ED00025044602E06D1CEDB2641C267849
:1042F000002EF9D1022404EB450414801278CA542C
:104300005B1C0322CA5400245B1C06E0CA545B1CDD
:10431000DAB28C54521CD3B2401C0278002AF5D178
:1043200070BD01004FF0000004D0012901D0022926
:1043300001D0032070470120704778B10023C0F8F6
:10434000B832C0F8C432C0F8D03209B1C0F8B412E3
:10435000012180F89C12027000F0CCB80320704755
:1043600010B5D0F8C802FDF738F9BDE81040FFF7E6
:10437000D8BF10B5D0F8C802FDF709F9BDE8104064
:10438000FFF7CFBF2DE9F04117460446002521B1C4
:1043900094F89C02032842D04CE0D4F8941204F123
:1043A0001400022935D1D0E902639E4206D9F21ADF
:1043B000826039462046FFF740FE0FE0B34214D139
:1043C0004068984211D3D4F8981288420DD2002246
:1043D00011462046FFF731FEC4F8985200231A46D2
:1043E0001946204600F0FAF813E094F89C020328DE
:1043F00008D1D4F8B802C16821B1C4F8D452C16858
:10440000204688478021204600F072F92046FFF7B9
:1044100036FE94F8A00268B184F8A0520AE0D4F8FD
:10442000B802426932B1C4F8D4524269204690477A
:10443000002800D10020BDE8F08170B51346044685
:10444000002221B194F89C02032830D03AE0D4F83D
:10445000941204F5AA70032934D1D0E902518D4297
:104460000AD96A1A82600846824200D30246194677
:104470002046FFF7DAFD25E094F8AA0210F01F00AD
:1044800003D0012802D0022800D0002294F89C0218
:10449000032808D1D4F8B802016921B1C4F8D422A4
:1044A0000169204688472046FFF701FE0AE0D4F85C
:1044B000B802836933B1C4F8D42282692046904798
:1044C000002800D1002070BD0020704710B50024E6
:1044D000012180F89C12D0F8B82222B152680179EB
:1044E000904700B10324204610BDD0F8C802FDF764
:1044F000A2B8000010B5017839BB15490222C1F8F5
:104500000805C0F8C8124FF0A040086004204860B9
:104510000020C1E90320C1E9062008624862C862A0
:1045200008630846FDF7F6FB08B1FCF7FAF88021AE
:104530000748FCF7DCFF402200210548FCF7DBFFC1
:10454000802201210248FCF7D6FF002010BD0000A8
:10455000682000200A0601F07F01D0F8C80201EBB4
:10456000C10100EB810002D590F83E00704790F841
:104570007E02704710B5D0F8D42200EB8202D2F848
:10458000B82222B190F89C32032B02D004E0032021
:1045900010BD126A02B19047002010BD10B5D0F8CE
:1045A000D42200EB8202D2F8B82222B190F89C32D9
:1045B000032B02D004E0032010BD526A02B19047E1
:1045C000002010BD10B51C461346D0F8C802224684
:1045D000FDF73AF8BDE81040FFF7A3BE10B5D0F8DC
:1045E000C802FDF761F8BDE81040FFF79ABE2DE95B
:1045F000F04100260125044680F89C52C4F89462DC
:104600006660C4F8A46280F8A062D0F8B80230B145
:10461000426822B100212046904700B103260022C3
:10462000402311462046FFF7CDFF4027A4F86451F0
:104630003B46002280212046C4F86071FFF7C2FF8C
:10464000A58430462762BDE8F08190F89C120429C9
:1046500003D190F89D1280F89C120020704710B58D
:1046600090F89C12032905D1D0F8B81211B1C9698C
:1046700001B18847002010BD01740020704710B5BB
:10468000D0F8C802FDF718FCBDE81040FFF749BE9E
:1046900070B5044600F2AA20054600F04DF801204E
:1046A000C4F89402B4F8B002C4F8980294F8AA02CC
:1046B00010F01F010AD001290ED0022912D000F0FB
:1046C00080012046BDE8704000F012B8294620461F
:1046D000BDE8704000F0CCB829462046BDE87040E7
:1046E00000F00CBA29462046BDE8704000F056B9EB
:1046F00010B5D0F8C802FCF7FBFFBDE81040FFF78B
:1047000010BE10B5D0F8C802FDF7F1FBBDE81040AF
:10471000FFF707BE90F89C1280F89D12042180F8E4
:104720009C120020704710B5D0F8C802FDF71AF8A7
:10473000BDE81040FFF7F5BD70B5054611F8010B57
:104740002870087868704C1C2046FEF707FF6880C8
:10475000A41C2046FEF702FFA880A01CFEF7FEFE68
:10476000E88070BD38B504460020ADF80000A1B166
:10477000C4F8B812D4F8D40204EB8000D0F8B80220
:10478000C16A19B168468847C4F8D002D4F8D80283
:10479000401CC4F8D802002038BD032038BD0246B2
:1047A0000020D2F8B832002B02D01B681046184700
:1047B000704700002DE9F04188462B4E897800258E
:1047C00004463170012906D941462046FFF73DFCD9
:1047D0000320BDE8F08194F89C02022702280CD047
:1047E00003281DD041462046FFF72FFC3178204694
:1047F000FFF70DFC03252846EBE789B320466160EF
:10480000FFF7CDFF050004D041462046FFF71DFC11
:104810001DE02046FFF74BFC032084F89C02EAE7EA
:10482000C1B1606888421BD0C1B22046FFF7EFFBE0
:10483000317820466160FFF7B2FF050010D0414695
:104840002046FFF702FC21792046FFF7E0FB84F8C1
:104850009C72D0E784F89C7220466160FFF7D7FB1A
:104860002046FFF724FCC6E704010020FFF749BFFC
:104870002DE9F0410A78002512F060020CD0202AC0
:1048800001D0402A7DD1D0F8D42200EB8202D2F8A8
:10489000B8229268904731E04B78002201260A2B1B
:1048A0006FD2DFE803F041666E586E08056E2D2961
:1048B000FFF77CFC67E004468888D8B9C888C8B987
:1048C0004888802816D200F07F0794F89C020328BD
:1048D00010D084F89E7239462046FFF7D0FE20465D
:1048E000FFF7E5FB1FB1022084F89C024BE084F83F
:1048F0009C6248E0204644E0FFF75CFF054642E04A
:10490000CB88012B3DD190F89C32012B04D0022B97
:1049100002D0032B35D104E08260012200F10801AE
:1049200016E00122011D13E090F89C22012A03D019
:10493000022A01D0032A24D1CA88022A21D1C660C2
:10494000D0F8A41209B10321C160022200F10C01C8
:10495000FFF7A0FB17E04A88012A02D0022A03D001
:104960000FE0C0F8A46216E08988090A80F8A01256
:1049700011E090F89C32012B08D0022B06D0032BBB
:1049800004D0FFF762FB2846BDE8F0814988012981
:10499000F9D1C0F8A422FFF78AFBF4E72DE9F04132
:1049A000054608780C790E464FF0000810F06000BC
:1049B0000BD0202801D040286AD121462846FFF795
:1049C00030FBFF2800D0D8B395E07078C8B3012839
:1049D00024D003285CD195F89C02022802D0032839
:1049E00056D10CE0002C53D0802C51D021462846C3
:1049F000FFF77EFE80212846FFF77AFE7BE0708875
:104A000040B93CB1802C05D0C88818B92146284649
:104A1000FFF76EFE2846FFF74AFB6CE095F89C0214
:104A20000228DFD0032863D1708880BB600603D0E2
:104A300021462846FFF794FC2846FFF738FBBCE7E1
:104A400000E00AE0C5F8D402D5F8B8028268F2B1F5
:104A500031462846904780464DE095F89C02002755
:104A6000022802D0032843D113E00CB1802C3FD19F
:104A7000200604F07F0000EB800005EB800101D5EB
:104A8000143101E001F5AA7102220F602CE032E03E
:104A90002EE0200604F00F0000EB800005EB800004
:104AA00009D5808C20B304F07F0000EB800005EB7B
:104AB000800614360AE0B0F86401C8B104F07F0043
:104AC00000EB800005EB800606F5AA764CB1802C41
:104AD00007D021462846FFF73DFD10B10120306088
:104AE00000E03760022231462846FFF7D3FA02E0A1
:104AF0002846FFF7AAFA4046BDE8F08170B50546A2
:104B0000087800240E4610F0600003D0202801D061
:104B1000402827D195F89C02012803D0022801D013
:104B200003281FD1B088C1B201291AD8C1B22846C2
:104B3000FFF779FAFF280CD058B9D5F8B8128A686F
:104B40003AB1C5F8D4028A683146284690470446EF
:104B500000E00324F088204307D12846FFF7A7FA96
:104B600003E031462846FFF770FA204670BD7047D3
:104B700000487047481E002070B50A78012302F0F3
:104B80000F054E78AB401B4CD0F81C58012E17D0A7
:104B900045EA0343C0F81C3800EB4210D0F8002B64
:104BA00012040BD4D0F8002B8B890979C3F30A03C4
:104BB0001A4344EA81410A43C0F8002B002070BD2B
:104BC0009BB21D43C0F81C5800EB4210D0F80039CE
:104BD0001B04F3D4D0F800398D890979C5F30A058F
:104BE00089042B4341EA82510B432343C0F8003927
:104BF000E4E7000000800010D0F800196FF30A010C
:104C0000C0F80019D0F8041841F48071C0F80418F5
:104C10000020704770B5044606990A9E049D0D98C1
:104C2000012916D0E06840F04000E060204600F026
:104C30002BF8A16B1EB321F48031A163012D07D1A4
:104C4000A16841F00601A160A16841F02001A160C6
:104C500070BDA16B21F48031A163E168094A114064
:104C6000E160E16821F44011E160012803D1E068CE
:104C700040F48010E060204600F006F8DEE741F4E2
:104C80008031DAE7BFFFBDFF08B500220D49009271
:104C9000009B5B1C00938B420CD80369002BF7DA56
:104CA0000092026942F001020261009A521C0092D5
:104CB0008A4201D9032008BD0269D207F5D100203C
:104CC00008BD0000400D030030B54C780A78012380
:104CD00000EB4212012C2CD0D2F8004B002C0BDA46
:104CE000D2F8004B44F00064C2F8004BD2F8004BFD
:104CF00044F08044C2F8004BD0F83C580C7804F0E3
:104D00000F0403FA04F425EA0444C0F83C48D0F840
:104D10001C48097801F00F018B4024EA0341C0F8D8
:104D20001C18D2F8000B19490840C2F8000B0020EB
:104D300030BDD2F80049002C0BDAD2F8004944F01B
:104D40000064C2F80049D2F8004944F08044C2F837
:104D50000049D0F83C480D7805F00F0503FA05F539
:104D6000ADB2AC43C0F83C48D0F81C48097801F01B
:104D70000F018B4099B28C43C0F81C48D2F800094F
:104D800003490840C2F80009D1E700000078F3EFBA
:104D9000007833ECD0F8001E21F00301C0F8001EAB
:104DA000D0F8041821F00201C0F804180020704760
:104DB000D0F8001E21F00301C0F8001ED0F804183E
:104DC00041F00201C0F80418002070472DE9F04FAF
:104DD00000250E460446DDF82CC0DDF824B0109FF7
:104DE0002846294604EB8002C2F80411401C0F2813
:104DF000F8D32046C7B1806B20F40012A263A06BE9
:104E000040F40022A26308468846C4F8000ED4F895
:104E100000182046C4F80018BCF1010F16D0D0F8D5
:104E2000001841F0030116E0D0F8040840F0020237
:104E3000C4F80428A06B40F40012A263A06B20F415
:104E40000022A263A06B20F48022DBE7D0F80018D8
:104E50000BB141F00101C0F80018102100F0EEFA8A
:104E600000B10125204600F0CBFA00B101254046F3
:104E7000C4F81088C4F81488C4F81C8800214FF0C6
:104E800000694FF0904A4FF67F3314E004EB411273
:104E9000D2F800C9BCF1000F06DA11B1C2F800A9BE
:104EA00004E0C4F8009901E0C2F80009C2F8100952
:104EB000C2F80839491C8E42E8D8002115E000BF2D
:104EC00004EB4112D2F800CBBCF1000F06DA11B1AD
:104ED000C2F800AB04E0C4F8009B01E0C2F8000B8C
:104EE000C2F8100BC2F8083B491C8E42E8D8D4F82F
:104EF000101821F48072C4F81028A0616FF080406F
:104F00006061BBF1000F03D1A06940F01000A06107
:104F1000A06909490843A0610C9818B1A06940F044
:104F20000800A061012F03D1A06904490843A061D2
:104F30002846BDE8F08F000000383C8004000040A7
:104F4000816821F0010181600020704770B50D7803
:104F50004E78444CEBB200EB4313012E21D0D3F832
:104F6000100B6FF31200C3F8100BD3F8100B204096
:104F7000C3F8100B886908B1C8688861C868C8613F
:104F8000D3F8100B40F40020C3F8100BD3F8100B2B
:104F9000CC69C4F312042043C3F8100B012A55D086
:104FA00058E08E69002ED3F8106932D06FF31206E4
:104FB000C3F81069D3F810692640C3F810698E69E8
:104FC000CC68A64200D98C61D3F8104944F400247F
:104FD000C3F81049D3F810498E69C6F3120634435A
:104FE000C3F81049012A22D000EB4512D2F800394B
:104FF00043F00443C2F800398A6932B3D0F8342848
:10500000097801F00F03012199400A43C0F83428C0
:1050100026E02640C3F81069D3F8104944F4002470
:10502000C3F81049D3F810496FF31204D8E749695F
:1050300019B100EB4512C2F8141900EB4510D0F875
:10504000001941F00441C0F8001909E0086908B1ED
:10505000C3F8140BD3F8000B40F00440C3F8000B66
:10506000002070BDFFFF07E010B5036C134CA34296
:1050700003D9D0F8003B002B1EDB0023C0F8103B07
:10508000D0F8103B43F40023C0F8103BD0F8103B9D
:1050900043F01803C0F8103BD0F8103B43F0C04376
:1050A000C0F8103B012907D1C0F8142BD0F8001B21
:1050B00041F08021C0F8001B002010BD0A30544F81
:1050C0004A780B78012A00EB43100BD0D0F8002B64
:1050D00022F40012C0F8002B0979032914D0022908
:1050E00012D017E0D0F8002922F40012C0F80029ED
:1050F0000979032901D002290CD1D0F8001941F017
:105100008051C0F8001905E0D0F8001B41F0805133
:10511000C0F8001B002070470A784B78D1B200EB32
:105120004110012B12D0D0F8001B002906DB2AB158
:10513000D0F8001B21F08041C0F8001BD0F8001B04
:1051400041F40011C0F8001B00207047D0F800198E
:10515000002906DB2AB1D0F8001921F08041C0F8FF
:105160000019D0F8001941F40011C0F80019EBE75C
:10517000F8B50C784F78764DE3B26FF0604600EBEF
:105180004313012F27D0D3F8104B6FF31204C3F849
:10519000104BD3F8104B2C40C3F8104B8D69002DE9
:1051A00075D0CC6825446D1EB5FBF4F5ADB26C43EB
:1051B000CC61D3F8104B06EAC5452C43C3F8104B1D
:1051C000D3F8104BCD69C5F312052C43C3F8104B2F
:1051D000012A71D0A4E08F691FB3D3F810796FF35F
:1051E0001207C3F81079D3F810792F40C3F810795B
:1051F0008F69CD682F447F1EB7FBF5F506EAC545DC
:10520000D3F810693543C3F81059D3F810598E6993
:10521000C6F312063543C3F810590D79012D10D08D
:105220001BE0D3F810692E40C3F81069D3F8105969
:1052300045F40025C3F81059D3F810596FF312053F
:1052400009E0D3F8105925F0C045C3F81059D3F838
:10525000105945F00055C3F81059012A18D000EB39
:105260004413D3F8004944F00444C3F800490C79CE
:10527000012C2FD08A6962B3D0F83428097801F064
:105280000F03012199400A43C0F834285EE036E05C
:105290004A691AB100EB4413C3F8142909790129AA
:1052A0000FD1D0F80818C90500EB4411D1F8002936
:1052B00003D442F0005202E02EE042F08052C1F8E6
:1052C000002900EB4410D0F8001941F00441C0F867
:1052D00000193BE0D0F80848E405D3F8004902D4AF
:1052E00044F0005401E044F08054C3F800490092B7
:1052F0000A8B93B20A78096900F0D0F926E0D3F856
:10530000104BCD68C5F312052C43C3F8104BD3F8EE
:10531000104B44F4002459E70A690AB1C3F8142B6E
:10532000097901290CD1D0F80808C005D3F8000B81
:1053300002D440F0005001E040F08050C3F8000B70
:10534000D3F8000B40F00440C3F8000B0020F8BD78
:10535000FFFF07E038B50022009213464D780A7827
:1053600042F2107400EB4212012D19D0D2F8005B0A
:10537000002D3CDAD2F8005B45F00065C2F8005B16
:105380000A7800EB4212D2F8005B45F08045C2F883
:10539000005B009A521C0092A24221D9012326E010
:1053A000D2F80059002D22DAD2F8005945F00065F4
:1053B000C2F800590A7800EB4212D2F8005945F0C1
:1053C0008045C2F80059009A521C0092A242E5D8CA
:1053D0000A7800EB4212D2F80029002AF3DB06E03B
:1053E0000A7800EB4212D2F8002B002AD1DB1846D3
:1053F00038BD816841F001018160002070470000E4
:1054000008B500220C490092009B5B1C00938B4264
:105410000AD80369002BF7DA009210220261009A81
:10542000521C00928A4201D9032008BD0269D206AB
:10543000F5D4002008BD0000400D030018B500237E
:105440000D4A0093009C641C009494420CD804699B
:10545000002CF7DA0093202343EA811101610099BF
:10546000491C0091914201D9032018BD01698906A8
:10547000F5D4002018BD0000400D0300D0F8080846
:1054800010F0060004D0022803D0062801D00F2017
:10549000704702207047406900F001007047D0F863
:1054A0001818D0F81C08084080B27047D0F81818B7
:1054B000D0F81C080840000C704710B5D0F8103820
:1054C000D0F8342801F00F0400EB4110E24002F064
:1054D0000102D0F8080943EAC212104010BD00EBE7
:1054E0004111D1F8081BD0F81408084070474169F1
:1054F00080690840704730B503460846940802F0BA
:105500000301002203F5805303E01D6840F8045BAB
:10551000521CA242F9D300290BD01C680022D500EE
:1055200024FA05F3491E521C090400F8013B090C3A
:10553000F5D130BD70B50446C068002520F0C040EC
:10554000E060012901D079B120E0E06840F000502E
:10555000E0600120FBF7E2FD60696D1C10F0010FB7
:1055600010D1322DF5D30DE0E06840F08040E060CE
:105570000120FBF7D3FD60696D1C10F0010F01D015
:10558000322DF5D3322D01D0002070BD012070BD29
:10559000D0F8002822F4FE62C0F80028D0F80028D5
:1055A0004FF4FE6303EA01110A43C0F8002800200B
:1055B00070470000022A3ED1264A274B0A449A42ED
:1055C00001D20F2138E0254A254B0A449A4201D2E4
:1055D0000E2131E0234A244B0A449A4201D20D2184
:1055E0002AE0224A224B0A449A4201D20C2123E0AB
:1055F000204A214B0A449A4201D20B211CE01F4A47
:105600001F4B0A449A4201D20A2115E01D4A1E4B43
:105610000A449A420FD31D4A1D4B0A449A4201D2B2
:10562000082109E01B4A11441B4A914201D207217B
:1056300002E0062100E00921C26822F47052C26033
:10564000C2684FF4705303EA81210A43C26000200C
:1056500070470000405327FF00350C00401E1BFF21
:1056600040420F0000DC0BFF804F1200808CF9FEDF
:1056700020D6130060B6E5FE60E3160000D3CEFE30
:1056800040771B00C05BB3FEC091210000CA91FEB1
:1056900020753800E05459FEE09C410010B5029C92
:1056A00074B9DB1C9C0800EB0230002300F580502D
:1056B00004E000BF51F8042B02605B1CA342F9D345
:1056C000002010BD264818B400680168890604D57A
:1056D00001684068009018BC704722490968C906F3
:1056E000F9D501684068204A0090106801684FF0C1
:1056F00024030C031D49046824F00104046016D43B
:1057000010684468C4F12404A4B20C80436010689B
:10571000016841F4002101601068016841F0010155
:105720000160122CD7D1124901F1160015E014685E
:105730006068C0F1240080B2088063600D498B6A04
:1057400023F400238B6211680A6842F001020A60A8
:105750001228C0D1064901F13A0018BC00F07CBB08
:10576000980500200048004020060020200000206E
:105770000C09002000600240FEE70907090E00281E
:1057800004DB00F1E02080F80014704700F00F0007
:1057900000F1E02080F8141D7047000000B587B0CC
:1057A00000F052FB1C2206496846FAF754FE00211D
:1057B000684600F0E2F80349086007B000BD000049
:1057C000C86600081C00002000B589B06B4602AA1C
:1057D00000213348FBF741F8002816D1029940F226
:1057E00003233048A1F20322994246D00FDCA1F5F1
:1057F000007101393CD0012907D1BDF8001049BA28
:105800000183BDF8021049BA418309B000BD012AE5
:105810003CD00E2AF9D19DF8000000EE100A214874
:10582000F8EE400A9FED200A603080EE801A80ED8D
:10583000001A9DF8011000EE901AF8EE600A80EE52
:10584000801A80ED011A9DF8021000EE901AF8EE11
:10585000600A80EE801A80ED021A9DF8031000EEB7
:10586000901AF8EE600A80EE801A80ED031ACCE7F9
:10587000BDF8001049BA01800DE0BDF8001049BA2A
:105880000186BDF8021049BA4186BEE7BDF8001096
:1058900049BA20F8481FBDF8021049BA4180B4E760
:1058A000E8030020880700200000C84200B589B046
:1058B00007AB6A4600210E48FAF7CFFF002815D142
:1058C0000098B0F5407F11D1BDF81C009FED091A7A
:1058D00040BA00EE100A0948B8EE400AC0EE010ACC
:1058E0009FED050A30EEC00A80ED010A09B000BD47
:1058F000100400200000C842000034435808002073
:1059000000F00300024900EB400001EBC0007047CB
:1059100088070020004870471C000020004870479E
:105920000C090020FBF726FDFDF746FEFDF7D2FB34
:10593000FDF774FBFDF72AFBFDF74CFBFDF760FC60
:10594000FDF7B6FCFDF7D4FCFDF77EFCFDF7A4FBEC
:1059500000F00EF8FEE701460020842900D0C81CA4
:10596000704710B500B9012000F0B0FB002010BD59
:1059700010B500F06DFC002010BD7FB50D4604464B
:105980004169B0F9080081B1A16971B1FFF7E3FF86
:10599000D4E905128DE80700D4E900102B462269EE
:1059A00000F069FD039004B070BDFFF7D4FF03A9B8
:1059B000CDE90001208A2B4682B2D4E9001000F024
:1059C0002DFD012801D00020EDE70398EBE7000052
:1059D0002DE9F041184C0F460546E6682068001D89
:1059E00000F0ADFA38B9206890F82C1001208840FA
:1059F000216981432161681C07D137B12168BDE865
:105A0000F0410E48091D00F0DDBA20683544B5426A
:105A10004560216805D2A06BBDE8F041091D00F08A
:105A2000B9BA606B091D00F0B5FAA06A854200D2D0
:105A3000A562BDE8F08100009C00002050260020F7
:105A40002DE9F041054600F0C9FA2E4CA068401C33
:105A5000A06020682C4F10B1606940B32DE0256034
:105A6000A068012829D1002606EB860007EB8000FC
:105A700000F082FA761C072EF6D323488C3000F013
:105A80007BFA2148A03000F077FA1F48B43000F0CC
:105A900073FA1D48C83000F06FFA1B48DC3000F084
:105AA0006BFA19488C3060631430A06305E02068FD
:105AB000E96AC06A884200D82560606A401C60625A
:105AC000E96A0120226988401043206101EB8100CE
:105AD00007EB8000291D00F075FA00F09FFA60695D
